:020000040800F2
:100000009806002049050008510300085303000822
:10001000570300085B0300085F03000800000000AE
:100020000000000000000000000000006303000862
:100030006503000800000000670300086105000870
:1000400063050008630500086305000863050008F0
:1000500063050008630500086305000863050008E0
:1000600063050008630500086305000863050008D0
:1000700063050008630500086305000863050008C0
:1000800063050008630500086305000863050008B0
:1000900063050008630500086305000863050008A0
:1000A0006305000863050008630500086305000890
:1000B0006305000863050008630500086305000880
:1000C0006305000863050008630500086305000870
:1000D00063050008FF1700086305000863050008B2
:1000E0006305000863050008630500086305000850
:1000F0006305000863050008630500086305000840
:10010000630500086305000863050008630500082F
:10011000630500086305000863050008630500081F
:10012000630500086305000863050008630500080F
:1001300000F002F800F03AF80AA090E8000C8244BF
:100140008344AAF10107DA4501D100F02FF8AFF29C
:10015000090EBAE80F0013F0010F18BFFB1A43F0A5
:1001600001031847C4230000E4230000103A24BF11
:1001700078C878C1FAD8520724BF30C830C144BF0C
:1001800004680C607047000000230024002500264E
:10019000103A28BF78C1FBD8520728BF30C148BFEA
:1001A0000B6070471FB51FBD10B510BD01F047FCB7
:1001B0001146FFF7F7FF00F07AF801F065FC03B491
:1001C000FFF7F2FF03BC01F0BBFA00002DE9F0419C
:1001D00005460E46AA215A4801F028F900BF8021A1
:1001E000574801F091F90028F9D0BB21544801F09B
:1001F0001DF900BF8021524801F086F90028F9D08E
:10020000CC214F4801F012F900BF80214C4801F089
:100210007BF90028F9D0DD21494801F007F900BF3A
:100220008021474801F070F90028F9D02F46344664
:100230000DE0381910F8011C414801F0F7F800BF33
:1002400080213F4801F060F90028F9D0641E002C9D
:10025000EFDCDD213A4801F0E9F800BF80213848A1
:1002600001F052F90028F9D0CC21354801F0DEF830
:1002700000BF8021324801F047F90028F9D0BB21A6
:100280002F4801F0D3F800BF80212D4801F03CF940
:100290000028F9D0AA212A4801F0C8F800BF80211F
:1002A000274801F031F90028F9D0BDE8F0811CB5EC
:1002B00000200090019001F081F90021214801F017
:1002C000DDFA01211F4801F0D9FA4FF4165001F070
:1002D00046FA33E01C48007880B300201A490870C1
:1002E00000221146174801F044FB164801F050FB6C
:1002F000064601F0C3FF0546144901F0D3FF04464A
:100300004FF08B4101F0F8FE0090002201210D48D2
:1003100001F02FFB0B4801F03BFB064601F0AEFF5E
:1003200005460A4901F0BEFF04464FF08B4101F03B
:10033000E3FE019008216846FFF748FFCAE7000086
:100340000038014000240140300000203333534086
:10035000704700BFFEE700BFFEE700BFFEE700BF3B
:10036000FEE77047704770470CB500200190009081
:100370006C48006840F480306A49086000BF6948F2
:10038000006800F4003000900198401C0190009833
:1003900018B90198B0F5A06FF1D16248006800F477
:1003A000003010B10120009001E000200090009882
:1003B000012843D15C48006840F010005A490860A9
:1003C0000846006820F0030008600846006840F016
:1003D0000200086053484068524948600846406837
:1003E00048600846406840F48060486008464068BD
:1003F00020F47C1048600846406840F4E8104860EB
:100400000846006840F08070086000BF45480068FA
:1004100000F000700028F9D04248406820F0030046
:10042000404948600846406840F00200486000BF0C
:100430003C48406800F00C000828F9D10CBD10B50C
:10044000FFF792FF10BD10B53648006840F001007C
:1004500034490860084640683449084031494860DA
:1004600008460068324908402E490860084600687E
:1004700020F4802008600846406820F4FE004860B0
:100480004FF41F008860FFF7DAFF4FF00060294942
:10049000086010BD10B5002100200022214B5B68D0
:1004A00003F00C0121B1042906D0082928D107E066
:1004B000214B224C236027E01F4B204C236023E07C
:1004C000184B5B6803F47010164B5B6803F48032C2
:1004D000022303EB904022B9194B4343174C23608E
:1004E0000DE0104B5B6803F4003323B1144B43431E
:1004F000124C236003E0104B4343104C236003E095
:100500000D4B0E4C236000BF00BF064B5B68C3F36E
:1005100003130C4CE15C094B1B68CB40074C236078
:1005200010BD000000100240002002400000FFF853
:10053000FFFFF6FE08ED00E000127A000000002048
:1005400000093D0004000020094880470948004791
:10055000FEE7FEE7FEE7FEE7FEE7FEE7FEE7FEE773
:10056000FEE7FEE704480549054A064B70470000D0
:100570004704000831010008980000209806002078
:10058000980200209802002031490143314A11604D
:10059000704770B5002100230F22C47804B32D4C9E
:1005A000246804F4E064C4F5E064210AC1F10403A2
:1005B000CA40447804FA03F18478144021430901C5
:1005C000254C0678A155047804F01F050124AC40A1
:1005D00005786D11AD0005F1E025C5F8004109E091
:1005E000047804F01F050124AC401C4D06787611F8
:1005F00045F8264070BD1A4A0A400243154B1B1F9E
:100600001A60704739B1134A121D12680243114B28
:100610001B1D1A6006E00F4A121D126882430D4B23
:100620001B1D1A607047042808D14FF0E0210969AA
:1006300041F004014FF0E022116107E04FF0E021AA
:10064000096921F004014FF0E022116170470000B8
:100650000000FA050CED00E000E400E080E100E0BD
:1006600080FFFF1F10B50446FA48844208D10121DB
:10067000401500F055FD0021601500F051FD17E018
:10068000F548844208D10121001500F049FD002100
:10069000201500F045FD0BE0F048844208D101210F
:1006A000C80300F03DFD00214FF4004000F038FD8C
:1006B00010BD30B50246002000235068E84C2040B1
:1006C0000D790C6844EA0524204350609068E54C9D
:1006D0002040D1E902542C434D7944EA450420439B
:1006E0009060D06A20F470000C7C641EE4B2234356
:1006F00040EA0350D06230BD0021016001714171B8
:100700008160C16001210174704721B1826842F0AB
:100710000102826003E0826822F001028260704779
:1007200021B1826842F48072826003E0826822F420
:1007300080728260704710B50023CBB21AB1446852
:100740001C43446002E044689C43446010BD8168DF
:1007500041F0080181607047014600208A6802F07C
:1007600008020AB1012000E000207047816841F0D2
:10077000040181607047014600208A6802F004028B
:100780000AB1012000E00020704721B1826842F4E4
:10079000A002826003E0826822F4A00282607047B7
:1007A000014600208A6802F480020AB1012000E0BC
:1007B0000020704710B50A4600210023416821F44B
:1007C0006041531E41EA4331416010BD21B142688E
:1007D00042F40062426003E0426822F40062426038
:1007E0007047F0B504460D4600200021092D11DDAB
:1007F000E068A5F10A0606EB4607072606FA07F1A8
:100800008843A5F10A0606EB460603FA06F10843FB
:10081000E0600CE0206905EB4507072606FA07F1C2
:10082000884305EB450603FA06F108432061072AD1
:100830000FDA606B561E06EB86071F2606FA07F1D5
:100840008843561E06EB860605FA06F108436063E8
:1008500022E00D2A0FDA206BD61F06EB86071F2633
:1008600006FA07F18843D61F06EB860605FA06F15D
:100870000843206310E0E06AA2F10D0606EB86074C
:100880001F2606FA07F18843A2F10D0606EB86063D
:1008900005FA06F10843E062F0BD21B1826842F436
:1008A0008012826003E0826822F4801282607047C6
:1008B0000146C86C80B2704766484C30006870478B
:1008C00021B1426842F48062426003E0426822F44F
:1008D00080624260704721B1426842F480524260B7
:1008E00003E0426822F48052426070470A460021C9
:1008F000816821F4E04111438160704721B1826831
:1009000042F40042826003E0826822F40042826086
:10091000704721B1826842F40212826003E082686B
:1009200022F4021282607047014600208A6802F4B5
:1009300000120AB1012000E000207047F0B5044623
:100940001546002000220026092911DDE068A1F1EA
:100950000A0707EB470C072707FA0CF29043A1F1AF
:100960000A0707EB470703FA07F21043E0600CE0C1
:10097000206901EB410C072707FA0CF2904301EBC9
:10098000410703FA07F210432061A06BC0F3015640
:10099000EF1C06F1010CA7EB0C0707EB870C1F27D8
:1009A00007FA0CF29043EF1C06F1010CA7EB0C07C1
:1009B00007EB870701FA07F21043A063F0BD10B5FB
:1009C0000A4600210023816B21F44011531E41EAA5
:1009D0000351816310BD08B5002300930090009B74
:1009E0000B440093009B1A6008BD08B50246002026
:1009F0000090009201F12800009B1844009000989C
:100A0000006880B208BD0A4600214168164B1940B3
:100A10001143416070474162826270470A4600217B
:100A2000416821F01F0111434160704740B10949FD
:100A30000831096841F40001064A0832116007E0F4
:100A400004490831096821F40001024A08321160A2
:100A5000704700000024014000280140003C014094
:100A6000FFFEF0FFFDF7F1FFFFFD3FFF0246002014
:100A700013680B400BB1012000E000207047CA430F
:100A80000260704770B502460020002300240B125C
:100A90005568CEB205EA060415681D4015B10CB1C3
:100AA000012000E0002070BD00220A12D343036041
:100AB0007047000010B50446CC48844208D101219B
:100AC000042000F02DFB0021042000F029FB46E06B
:100AD000C748844208D10121082000F021FB0021F1
:100AE000082000F01DFB3AE0C248844208D10121F1
:100AF000102000F015FB0021102000F011FB2EE06B
:100B0000BD48844208D10121202000F009FB0021CA
:100B1000202000F005FB22E0B848844208D10121E2
:100B2000402000F0FDFA0021402000F0F9FA16E024
:100B3000B348844208D10121802000F0F1FA00215D
:100B4000802000F0EDFA0AE0AE48844207D101218E
:100B5000801500F0E5FA0021A01500F0E1FA10BDC3
:100B600010B50121084600F0DBFA0021012000F059
:100B7000D7FA10BD2DE9F0410246002500260020DD
:100B800000230024002791F803C00CF00F0591F812
:100B900003C00CF0100CBCF1000F03D091F802C0A0
:100BA0004CEA050591F800C0BCF1000F31D0146883
:100BB00000202BE04FF0010C0CFA00F3B1F800C05C
:100BC0000CEA03069E4220D183004FF00F0C0CFA72
:100BD00003F7BC4305FA03FC4CEA040491F803C094
:100BE000BCF1280F06D14FF0010C0CFA00FCC2F842
:100BF00014C00AE091F803C0BCF1480F05D14FF0D2
:100C0000010C0CFA00FCC2F810C0401C0828D1D31B
:100C10001460B1F800C0BCF1FF0F34DD546800204F
:100C20002EE000F1080C4FF0010808FA0CF3B1F8BF
:100C300000C00CEA03069E4221D183004FF00F0C46
:100C40000CFA03F7BC4305FA03FC4CEA040491F8E0
:100C500003C0BCF1280F05D100F1080C08FA0CF80C
:100C6000C2F8148091F803C0BCF1480F07D100F11D
:100C7000080C4FF0010808FA0CF8C2F81080401C6C
:100C80000828CED35460BDE8F0814FF6FF71018093
:100C9000022181700421C1707047024600209368D0
:100CA0000B400BB1012000E000207047014688682E
:100CB00080B2704702460020D3680B400BB1012080
:100CC00000E0002070470146C86880B270470161AB
:100CD0007047416170470AB1016100E041617047AE
:100CE000C16070474FF480320A4382618161826142
:100CF00082698269704702460020434B18684FF6AC
:100D00008073184040EA021008433F4B1860704758
:100D10003E49C8617047F0B50A460023002400210F
:100D2000002500F00046B6F1004F02D1364EF169C1
:100D300001E0354E7168C0F3034583B200F44016FC
:100D4000B6F5401F08D121F070612F4E766826F06D
:100D500070662D4F7E6012E000F48016B6F5801F9D
:100D600006D1032606FA05F4A14341F0706106E0BE
:100D7000460D360103FA06F6B14341F0706122B127
:100D8000460D360103FA06F6314300F00046B6F18F
:100D9000004F02D11C4EF16101E01B4E7160F0BDAD
:100DA00030B500228B071C0F0F2303FA04F2164BF9
:100DB00008338C1053F824309343134C08348D10AF
:100DC00044F8253023468C1053F824308C07240F28
:100DD00000FA04F423430C4C08348D1044F82530F9
:100DE00030BD0A49DC31086070470000000801404E
:100DF000000C0140001001400014014000180140A7
:100E0000001C014000200140000001400000204281
:100E1000DF48006840F00100DD490860084640688E
:100E2000DC490840DA49486008460068DA49084069
:100E3000D74908600846006820F48020086008460A
:100E4000406820F4FE0048604FF41F00886070473F
:100E5000CF49096821F48031CD4A116011460968F3
:100E600021F480211160B0F5803F03D0B0F5802FD0
:100E70000ED106E0C649096841F48031C44A1160C8
:100E800007E0C349096841F4A021C14A116000E0AC
:100E900000BF00BF704710B50146002200230020AC
:100EA0004A11012A02D1BA4C236806E0022A02D173
:100EB000B74C236A01E0B64C636A01F01F020124BB
:100EC00094401C400CB1012000E0002010BD38B55A
:100ED000002000900024002500BF3120FFF7DBFF39
:100EE00005460098401C00900098B0F5A06F01D016
:100EF000002DF2D03120FFF7CEFF08B1012400E031
:100F00000024204638BD01460020A14A106820F088
:100F1000F80040EAC10010607047A04908607047BF
:100F2000024600209A4B586820F47C1042EA0103E4
:100F30001843974B586070479849086670470146B8
:100F40000020934A506820F0030008435060704727
:100F50008F48406800F00C007047014600208C4A22
:100F6000506820F0F00008435060704701460020B0
:100F7000874A506820F4E06008435060704701469B
:100F80000020834A506820F4605040EAC10050605D
:100F9000704729B17E4A527A02437D4B5A7204E06F
:100FA0007B4A527A82437A4B5A7270477B49D831D6
:100FB0000860704701460020754A506820F44040A0
:100FC0000843506070470021714A20321170704A06
:100FD00082F82010012802D004280AD104E001215F
:100FE0006B4A2032117005E00521694A20321170E8
:100FF00000E000BF00BF704769490860704764495E
:10100000096A0143624A11627047654944390860C0
:10101000704730B500210022002400235C4D6D682C
:1010200005F00C0121B1042905D0082923D105E0E0
:101030005C4D056022E05B4D05601FE0544D6D681E
:1010400005F47012524D6D6805F48034022505EBED
:1010500092421CB9544D554305600BE04C4D6D68F0
:1010600005F400351DB1504D5543056002E04D4D6E
:101070005543056002E04B4D056000BF00BF444D85
:101080006D6805F0F0010909484D6B5C0568DD40AD
:1010900045603F4D6D6805F4E061090A434D6B5CA6
:1010A0004568DD4085603A4D6D6805F46051C90AB8
:1010B0003E4D6B5C4568DD40C560354D6D6805F49F
:1010C0004041890B3A4D6B5CC568B5FBF3F5056192
:1010D00030BD29B12E4A526902432D4B5A6104E0BA
:1010E0002B4A526982432A4B5A61704729B1284AD8
:1010F00092690243264B9A6104E0254A9269824331
:10110000234B9A61704729B1214AD2690243204B8F
:10111000DA6104E01E4AD26982431D4BDA617047EE
:1011200029B11B4AD2680243194BDA6004E0184A1D
:10113000D2688243164BDA60704729B1144A1269AB
:101140000243134B1A6104E0114A12698243104BA7
:101150001A61704712494039086070470F49C864E6
:1011600070470B49C87170470948406A40F0807069
:1011700007494862704701460020054A92680A40C4
:101180000AB1012000E000207047014988727047D1
:10119000001002400000FFF8FFFFF6FE0000424290
:1011A0008004424200127A0000093D001400002031
:1011B0002400002010B50446FB48844209D10121D7
:1011C0008803FFF7ADFF00214FF48040FFF7A8FF31
:1011D00032E0F648844209D101214804FFF7ADFF0F
:1011E00000214FF40030FFF7A8FF25E0F0488442CB
:1011F00009D101218804FFF7A0FF00214FF48020CE
:10120000FFF79BFF18E0EB48844209D10121C80495
:10121000FFF793FF00214FF40020FFF78EFF0BE054
:10122000E548844208D101210805FFF786FF002127
:101230004FF48010FFF781FF10BD2DE9F04786B015
:1012400005460E460024A24600BFA1460027B089ED
:1012500000B100BF2F462C8A4CF6FF700440F08886
:1012600004432C82AC894EF6F3100440B0883189D7
:101270000843718908430443AC81AC8A4FF6FF40B0
:101280000440B0890443AC8201A8FFF7C2FEC648FF
:10129000874202D1DDF810A001E0DDF80CA0A8899A
:1012A00000F4004040B10AEBCA0000EB0A103168BC
:1012B0004900B0FBF1F807E00AEBCA0000EB0A10A6
:1012C00031688900B0FBF1F86420B8FBF0F004014C
:1012D0002009642101FB1089A88900F4004040B175
:1012E000322000EBC900B0FBF1F000F0070004432E
:1012F00008E0322000EB09106421B0FBF1F000F0AF
:101300000F0004432C8106B0BDE8F0874FF416515E
:10131000016000218180C18001810C214181002177
:101320008181704710B502460020108A4FF2FF03FA
:1013300018400B884C8823438C882343CC88234354
:101340001843108210BD0021018041808180C1803E
:10135000704721B1828942F40052828104E082897F
:101360004DF6FF731A4082817047F0B503460024A2
:1013700000260025002040F66A17B94200D100BFC0
:101380001846C1F3421401F01F06012707FA06F5BB
:10139000012C01D10C3004E0022C01D1103000E00E
:1013A00014301AB107682F43076002E00768AF43A3
:1013B0000760F0BD1AB1838A0B43838202E0838AFF
:1013C0008B4383827047028A4FF6F0731A40028281
:1013D000028A0A430282704782894FF2FF731A40E1
:1013E000828182890A438281704721B1828942F0D9
:1013F0000202828104E082894FF6FD731A408281E5
:101400007047028A4FF6DF731A400282028A0A434B
:101410000282704721B1028A42F48042028204E0D3
:10142000028A4BF6FF731A4002827047C1F308022A
:101430008280704701468888C0F308007047818920
:1014400041F0010181817047028BD2B20283028B8D
:1014500042EA012202837047028B02F47F42028338
:10146000028B0A430283704721B1828A42F0200234
:10147000828204E0828A4FF6DF731A4082827047CC
:1014800021B1828A42F01002828204E0828A4FF601
:10149000EF731A408282704721B1828A42F00802BB
:1014A000828204E0828A4FF6F7731A408282704784
:1014B00021B1828942F40042828103E08289C2F331
:1014C0000E028281704721B1828A42F400628282D8
:1014D00004E0828A4FF2FF731A4082827047828A48
:1014E0004FF6FB731A408282828A0A4382827047D7
:1014F00021B1828A42F00202828204E0828A4FF69F
:10150000FD731A408282704702460020B1F5007FC9
:1015100000D100BF13880B400BB1012000E0002078
:10152000704701F40072B2F5007F00D100BFCA43DA
:101530000280704770B50246002400230025002079
:1015400040F66A16B14200D100BFC1F3421501F066
:101550001F03012606FA03F3012D02D196893340B9
:1015600006E0022D02D1168A334001E0968A33400C
:101570000C12012606FA04F41688344013B10CB19B
:10158000012000E0002070BD10B50022002340F6CD
:101590006A14A14200D100BF0A1201249440A3B2F0
:1015A000DC43048010BD00000038014000440040CE
:1015B00000480040004C00400050004010B56FF063
:1015C0000400FFF730F82E4800682E49B0FBF1F018
:1015D0002D4908700846007800EB4001C1EBC010AF
:1015E0004FF6FF7101EAC0002849088010BD01468E
:1015F000254A12784A434FF0E0235A6100229A614B
:101600001A46126942F001021A6100BF4FF0E0224F
:10161000106900F001021AB100F48032002AF5D0FE
:101620004FF0E022126922F001024FF0E0231A612C
:1016300000229A6170470146144A12884A434FF0CB
:10164000E0235A6100229A611A46126942F00102AF
:101650001A6100BF4FF0E022106900F001021AB1D8
:1016600000F48032002AF5D04FF0E022126922F017
:1016700001024FF0E0231A6100229A6170470000D6
:101680000000002000127A00280000202A0000201C
:10169000F8B506460C4615462749701A8E4223D0E7
:1016A00009DC2648304480B1B0F5806F12D0B0F527
:1016B000006F2DD113E0B0F5806F1AD0B0F5006F38
:1016C0001CD0B0F5406F23D11DE001210420FFF7AD
:1016D0000DFD1DE001210820FFF708FD18E00121A4
:1016E0001020FFF703FD13E001212020FFF7FEFC8F
:1016F0000EE001214020FFF7F9FC09E001218020E4
:10170000FFF7F4FC04E001210802FFF7EFFC00BF43
:1017100000BF8DF80350ADF8004003208DF80200A3
:1017200069463046FFF726FAF8BD30BF704772B6FB
:10173000704762B6704700000014014000F8FEBF19
:10174000014600BF704700BF484A128802F04002BD
:10175000002AF9D0C2B2454B1B1D1A80704710B544
:1017600086B00446012144F20400FFF7BFFC4FF4A9
:101770000070ADF8140003208DF8160018208DF8C5
:10178000170005A93A48FFF7F5F94FF48060ADF866
:10179000140004208DF8170005A93548FFF7EAF971
:1017A0004FF4A060FEF7F0FE25208DF80000032026
:1017B0008DF801008DF8020001208DF803006846C5
:1017C000FEF7E7FE01940020ADF80800ADF80A002E
:1017D000ADF80C00ADF810000C20ADF80E0001A91A
:1017E0002248FFF72AFD012240F225511F48FFF74A
:1017F000BCFD01211D48FFF7ACFD06B010BD10B5C2
:1018000040F225511948FFF795FE70B31748FFF7CE
:1018100011FEC4B2112C03D10120164908701FE03B
:1018200014480078012805D1222C03D10220114947
:10183000087015E00F480078022805D1332C03D139
:1018400003200C4908700BE00A480078032807D1F0
:10185000442C05D100200749087001200649087072
:1018600040F225510148FFF78FFE10BD00380140BE
:1018700000080140310000203000002030B585B064
:1018800005460C466748284430B1B0F5806F08D053
:10189000B0F5C05F0FD109E001214802FFF726FC37
:1018A00009E001218802FFF721FC04E00121C803BF
:1018B000FFF71CFC00BF00BF062C28D2DFE804F0B5
:1018C00003090F151B21002201215748FFF7E0FEF5
:1018D0001DE0002202215448FFF7DAFE17E0002243
:1018E00004215148FFF7D4FE11E0002208214E48A0
:1018F000FFF7CEFE0BE0002210214B48FFF7C8FE99
:1019000005E0002220214848FFF7C2FE00BF00BFCB
:101910004FF40040FFF74EFB2846FEF7A3FE0020E1
:1019200000908DF804008DF805004FF460200290BF
:101930000020039001208DF8100069462846FEF72C
:10194000B8FE01212846FEF7E0FE2846FEF7FFFE1E
:1019500000BF2846FEF700FF0028FAD12846FEF710
:1019600005FF00BF2846FEF706FF0028FAD105B0A4
:1019700030BD70B505460E46144623460122314659
:101980002846FEF72EFF01212846FEF7FEFE70BD19
:1019900010B5044600BF02212046FFF767F8002873
:1019A000F9D02046FEF784FF10BD2DE9F04F87B037
:1019B00083460C464FF00009CA4611E05846FFF72F
:1019C000E7FF064600F05AFC0546494600F032FBA8
:1019D00081460520FFF72FFE0AF1010000F0FF0A03
:1019E000A245EBDB204600F0E7F9CDE902014846CD
:1019F00000F0F4FA07464FF066320C4B00F0F0F9B5
:101A0000CDE90001DDE9022300F07EF80546002261
:101A1000074B00F079F8CDE9040100F043F807B076
:101A2000BDE8F08F00DCFEBF0008014066660A409A
:101A30000000B04070477047704770477047754668
:101A400000F02CF8AE4605006946534620F007002A
:101A5000854618B020B5FEF785FDBDE820404FF063
:101A600000064FF000074FF000084FF0000B21F088
:101A70000701AC46ACE8C009ACE8C009ACE8C00955
:101A8000ACE8C0098D46704710B50446AFF300803E
:101A90002046BDE81040FEF792BB000000487047AA
:101AA0003400002021F00042A2F16052B2F5801F04
:101AB00001F0004328BFD2F17F6C0BD95FEA001C14
:101AC00043EAC20242EB507018BF704728BF20F0B3
:101AD00001007047B2F5801FBCBF184670474FEA3F
:101AE000410C1CF5001F02D2084600F0A2BC70B5E4
:101AF00000F020FA00000089FFF7F6BF4FF0004029
:101B0000A0F58000704700002DE9C04130B4DFF837
:101B1000A0C23CEA111418BF3CEA131400F0EC8098
:101B200081EA03051CEA111444EAD57418BF1CEAC3
:101B3000131500F0C780A4EB05044FF0004545EAFB
:101B4000C12145EAC32341EA505143EA525304F10B
:101B50007F74994204F500344FEAC0204FEAC22254
:101B600008BF904200F09C804FEA13650FF24016C8
:101B7000765D4FEA134506FB05F7C7F1807706FB54
:101B800007F74FEAD737A7FB03687642C8F58038D6
:101B9000A7FB06CE38BFA8F1010807FB08E64FF007
:101BA000000EA6FB028CE6FB03CEDCF1000CCEF1AE
:101BB000004E38BFAEF1010EA6FB0C584FF00007E7
:101BC0004FF00005E6FB0E87A1FB08C6A0FB07CE81
:101BD00016EB0E0645F10005E1FB076515F1E04E39
:101BE0007EBFA4F580345FEA46066D4116F180079A
:101BF00045F100054FEA17274FEA066647EA0567F1
:101C0000A6F1DE46B6F1805F4FEA15251FD93846AA
:101C100024F0010C05EBC471BCF1FE6F01EB0C115B
:101C200002D8F0BCBDE8008124425CBF01F5801EF3
:101C30009EEAC47F02D4F0BCBDE80081244238D4BF
:101C4000F0BCA1F1C041BDE8004100F0C1B94FEACC
:101C5000D22242EA43524FEAD323A7FB02864FEA3D
:101C6000D02040EA415007FB03661EEA0E0F4FEA00
:101C7000D12105FB026658BFA6EB0056B6EB005615
:101C80004FEA520E4EEAC37E18EB0E0E56EB530E81
:101C9000BDD518EB02085E417F1C55F10005B6E783
:101CA0004FF480154FF000074FF000064FF000088A
:101CB000ADE7F0BC4FF0000001F1C04101F0004180
:101CC000BDE8008111EA0C1F0CEA131500D00CE0EE
:101CD00013EA0C1F00F025804FF00000F0BC81EAF1
:101CE000030101F00041BDE80081F0BCBDE8004106
:101CF00081EA030100F06CB9F0BCBDE8004170B5A9
:101D000000F018F9097EFC3E00F007B881EA0301F3
:101D10004FF0000001F00041704781EA030100F03C
:101D200057B9F0BCBDE800414FF0000021497047B1
:101D3000FFFDFBF9F7F5F4F2F0EEEDEBE9E8E6E490
:101D4000E3E1E0DEDDDBDAD8D7D5D4D3D1D0CFCD17
:101D5000CCCBCAC8C7C6C5C4C2C1C0BFBEBDBCBB50
:101D6000BAB9B8B7B6B5B4B3B2B1B0AFAEADACAB4B
:101D7000AAA9A8A8A7A6A5A4A3A3A2A1A09F9F9E25
:101D80009D9C9C9B9A9999989797969595949393D7
:101D9000929191908F8F8E8E8D8C8C8B8B8A89896E
:101DA00088888787868585848483838282818180F1
:101DB0000000FF070000F87FB0FA80F310FA03F18B
:101DC0000AD0C3F11D0303F580634FEA41504FEA87
:101DD000035202EBD12170474FF000007047000022
:101DE000DFF848C170B51CEA111E1EBF1CEA1315AE
:101DF0009EEA0C0F95EA0C0F00F06F8081EA030455
:101E000023EA4C134EEAD47E21EA4C1141F48011AE
:101E100043F48013AE44A1FB024CA0FB0365AEF17A
:101E20007F7E361955EB0C05A1FB034C4CF10003EA
:101E3000A0FB021C16EB0C06654153F1000309429E
:101E400018BF46F0010613F4007F0BD14FEA0331AF
:101E50004FEA0530340341EA155140EA16506FF05D
:101E600003020AE04FEAC3214FEAC520F40241EA27
:101E7000555140EA56506FF0020202EB2E4201EB40
:101E8000025585EACE710AD05FEA440C18BF24F0EF
:101E9000004450F1000041F1000120EAD47040F20A
:101EA000FE7C624500D270BDA84214BF4FF0804452
:101EB0004FF04044002E08BF0024BEF1806FA8BF41
:101EC000A1F1C041BDE8704080F282804FF0000077
:101ED00001F1C04101F0004170479EEA0C0F0CEA8D
:101EE000131518BF95EA0C0F06D04FF0000081EAD9
:101EF000030E0EF0004170BD00F01CF88900013E99
:101F000000F007B800F009B84FEA430C5FEA5C5CE8
:101F100008D081EA030100F05BB84FEA410C5FEAA8
:101F20005C5CF6D14FF00000014970470000FF07EC
:101F30000000F87F0EF1020E2EF0030E5EF8046B27
:101F4000364205D4012A43EB030515F5001F12D8CC
:101F5000012841EB010C1CF5001F0CD80ED14FEAF3
:101F6000D17C15F5001F0CEB4C0C0CF1020C08BFDA
:101F70004CEBD37C04E04FF0080C01E04FEAD37C3B
:101F80000CEB4C0526FA05F606F00706B6F1040C34
:101F900006D20EEB860CBDE870404CF0010C604799
:101FA000DFE80CF0090B02024FF000414FF0000097
:101FB000A1F5002170BD19461046012851EB01041E
:101FC00018BFD4F5001484BF002001F0004170BD9B
:101FD0000808A0F500114FEA3101704743004FEAAD
:101FE000D30C4FEA3C0C43401FBF40070CF160513B
:101FF00013F0FE4F70471CF0006F03D100200CF06F
:10200000004170470CF0004343EA507010B540EABD
:10201000CC0000F0C8F900BF000000924FEA0001B8
:10202000FFF7D6BF4FF000414FF00000A1F50021AF
:102030007047000090EA010F48BF81F0004100F1B5
:102040000482421A3CBF801A89184FEAD0524FF0DE
:102050007F4C1CEA410FA2EBD15318BF9CEA026FE0
:1020600000F03B804FF0004C4CEA00204CEA01218C
:1020700021FA03FC10EB0C0C1ED202F1FF325FEAD6
:102080001C2040EBC25038BF70471CF07F0F4FEA56
:10209000400C18BFBCF17F4F38BF7047C3F120031D
:1020A000994008BF20F00100BCF17F4F38BF704756
:1020B000A0F1C04000F0BDB94FEA3C00000A40EB7F
:1020C000C25028BF1CF0FF0F4FEA400CE6D018BFEB
:1020D000BCF17F4F38BF7047EAE79CEA026F05D03A
:1020E00010EA5C0F08BF00F00040704710B500F028
:1020F0005AF900BF64FBBE3E4FF47F0C1CEAD012BD
:102100001EBF1CEAD11392EA0C0F93EA0C0F00F0E9
:10211000858090EA010F48BF42F4807240F4000CC1
:1021200041F400002CF07F4120F07F4000B5814257
:10213000A2EB03020FF2081CACEB504EC0F1000002
:102140009EF800E04FEA4E0E00FB0EFC38BF49003F
:102150004FEA2C1C02F5FA020CFB0EF34FEACE1EDE
:102160004FEA112C4FEAC1210EEB635E42EB224293
:102170000EFB0CFC4FEA1C5300FB03114FEA112C21
:102180004FEA01310EFB0CFC4FEADC4C00FB0C115A
:10219000C14228BF09184CEB03335DF804EB10EB88
:1021A000410143EBC250B2F57C0F38BF704729D5CF
:1021B00012F0F00F1CBF00F1C04000F0004070476B
:1021C000008182838485868788898B8C8D8E8F9110
:1021D0009293959697999A9C9D9FA0A2A3A5A7A834
:1021E000AAACAEB0B2B3B5B7B9BCBEC0C2C5C7C960
:1021F000CCCED1D4D7D9DCDFE2E6E9ECF0F3F7FAC4
:10220000FE0000004FEA400C0CF1807CBCF17E4FD8
:1022100028BF7047B0F1C04000F00BB990EA010F41
:102220000CEAD11348BF42F48072624538BF63455F
:1022300007D213F47F0F16D080EA010000F00040AF
:10224000704710B500F0AFF8097EFC3E00F005B80D
:1022500080EA010000F00040704780EA010000F0D1
:10226000004000F0E6B812F47F0F04BF0248704748
:1022700080EA010000F0DDB80000C07FB0FA80F312
:1022800010FA03F2C3F19D030AD0D90501EB122025
:10229000530638BF704700F1010008BF20F001006D
:1022A000704700004FF47F0C1CEAD0121EBF1CEADE
:1022B000D11392EA0C0F93EA0C0F00F0478090EADA
:1022C000010F48BF42F480724FF0004C4CEA0020EE
:1022D0004CEA012102EB0302A0FB0113A2F500026C
:1022E000002918BF43F001035B0028BF4FEA330306
:1022F00042EB22425FEA132C4CEBC2502EBFBCEBE8
:10230000436FB2F57C0F70474FEA036CBCF1004F8E
:1023100008BF20F00100B2F57C0F38BF70470BD525
:1023200082F0FF0212F5803FC8BF704700F1C04045
:10233000D8BF00F00040704700F5000C5FEA4C0C7D
:1023400048BF7047B0F1C04000F073B890EA010F89
:102350000CEAD11348BF42F48072624538BF63452E
:1023600004D280EA010000F00040704710B500F090
:102370001AF800BF8900013E00F007B800F009B864
:102380005FEA410C5FEA1C6C08D080EA010000F0B3
:1023900050B85FEA400C5FEA1C6CF6D14FF0004089
:1023A000A0F5800070470EF1020E2EF0030E5EF8CD
:1023B000044B244204D44FEA4102B2F17F4F11D8BA
:1023C0004FEA4003B3F17F4F0CD80ED14FEAD07CD7
:1023D000B2F17F4F0CEB4C0C0CF1020C08BF4CEB34
:1023E000D17C04E04FF0080C01E04FEAD17C0CEB0B
:1023F0004C0324FA03F404F00704B4F1040C06D2ED
:102400000EEB840CBDE810404CF0010C6047DFE897
:102410000CF0070802024FF00040A0F5800010BD4C
:102420000846420018BFD2F1807288BF00F0004019
:1024300010BDFF2141EAD050C005704790EA010F5E
:1024400048BF81F000413FF5FCAD421A04D882F04C
:102450000042A0EB020011444FEAD0524FF07F4CF3
:102460001CEA410FA2EBD15318BF9CEA026F4AD07D
:102470004FF0004C4CEA00204CEA012121FA03FC09
:10248000B0EB0C0C0FD412F0FE0F36D05FEA4C000C
:102490001DD5001240EBC25038BF70471CF03F0FF3
:1024A00018BF70470BE0A2F101025FEA1C2040EB6D
:1024B000C25038BF70471CF07F0F18BF7047C3F180
:1024C0002003994014BF401E20F00100704780088F
:1024D0004FEA122308BF7047B0FA80FCA2EB0C024F
:1024E000CCF1280C60FA0CF093EA122F04BF00EB39
:1024F000C25070474FEAC3707047130A5FEADC109E
:1025000008BF7047F6E79CEA026F04D010EA5C0F40
:1025100008BF0020704710B5FFF745FF40DFF63ECB
:1025200081F00040704700004825000800000020AE
:10253000340000006C0100087C25000834000020F5
:10254000640600008801000800A24A0400000000A0
:102550000000000001020304060708090000000053
:102560000102030401020304060708090204060825
:0C2570000000000000000000000000005F
:0400000508000131BD
:00000001FF
